:020000040800F2
:1000000000000220290A0008790A0008790A00087D
:10001000790A0008790A0008790A0008000000003F
:10002000000000000000000000000000790A000845
:10003000790A000800000000790A0008C9020008D7
:10004000790A0008790A0008790A0008790A000884
:10005000790A0008790A0008790A0008790A000874
:10006000790A0008790A0008790A0008790A000864
:10007000790A0008790A0008790A0008790A000854
:10008000790A0008790A0008790A0008790A000844
:10009000790A0008790A0008790A0008790A000834
:1000A000790A0008790A0008790A0008790A000824
:1000B000790A0008790A0008790A0008790A000814
:1000C000790A0008790A0008790A0008790A000804
:1000D000790A0008790A0008790A0008790A0008F4
:1000E000790A0008790A0008790A0008790A0008E4
:1000F000790A0008790A0008790A0008790A0008D4
:10010000790A0008790A0008790A0008790A0008C3
:10011000790A0008790A0008D5020008790A00085F
:10012000790A0008790A0008790A0008790A0008A3
:10013000790A0008790A0008790A0008790A000893
:10014000790A0008790A0008790A0008790A000883
:10015000790A0008790A0008790A0008790A000873
:10016000790A0008790A0008790A0008790A000863
:10017000790A0008790A0008790A000800000000DE
:08018000790A0008790A000861
:100188000348044B834202D0034B03B1184770471E
:100198000C0000200C000020000000000548064B61
:1001A8001B1AD90F01EBA301491002D0034B03B16D
:1001B800184770470C0000200C00002000000000C9
:1001C80010B5064C237843B9FFF7DAFF044B13B197
:1001D8000448AFF300800123237010BD0C000020F9
:1001E80000000000C40A000808B5054B1BB105490A
:1001F8000548AFF30080BDE80840FFF7CFBF00BF58
:100208000000000010000020C40A0008FEE70000FB
:1002180000B587B0002300930D4A116B41F0080127
:100228001163126B02F008020092009A01A901936F
:100238004B608B60CB600B614FF4704301930123DB
:100248000293044800F014FA07B05DF804FB00BFFD
:1002580000380240000C024008B50748074B03600D
:10026800182343604FF6FF13C36000F0D3F900B9B9
:1002780008BDFFF7CBFF00BF28000020001000409A
:1002880008B500F09DFBFFF7C3FFFFF7E5FF034844
:1002980000F062F800B9FEE7FFF7B8FF2800002079
:1002A80008B50268044B9A4200D008BD4FF480514B
:1002B800024800F0D3FAF8E700100040000C0240B2
:1002C80008B500F097FB00F050FB08BD08B50248E0
:1002D80000F088F808BD00BF2800002008B50320FA
:1002E80000F008FB0B4A536A43F4E02353620022F0
:1002F80011466FF00B0000F00FFB002211466FF063
:100308000A0000F009FB002211466FF0090000F016
:1003180003FB08BD00ED00E002680E4B9A4200D0D6
:10032800704700B583B00022019203F50A33196CB7
:1003380041F0100119641B6C03F010030193019B39
:100348000F21362000F0E8FA362000F0F5FA03B065
:100358005DF804FB0010004090F83D30012B37D1C8
:10036800022380F83D300268D36843F00103D3606C
:100378000368194A934220D0B3F1804F1DD0A2F5EB
:100388007C42934219D002F58062934215D002F55F
:100398008062934211D002F5784293420DD002F563
:1003A8007052934209D0A2F59432934205D01A684C
:1003B80042F001021A60002070479A6802F00702B2
:1003C800062A07D01A6842F001021A600020704716
:1003D80001207047002070470000014070477047B7
:1003E8007047704770B504460368DE681D6915F0EC
:1003F800020F10D016F0020F0DD06FF002021A6132
:100408000123037703689B6913F0030F5ED0FFF79E
:10041800E6FF0023237715F0040F12D016F0040F1F
:100428000FD023686FF004021A6102232377236830
:100438009B6913F4407F4FD02046FFF7D0FF00237D
:10044800237715F0080F12D016F0080F0FD0236885
:100458006FF008021A61042323772368DB6913F01D
:10046800030F40D02046FFF7BAFF0023237715F08B
:10047800100F12D016F0100F0FD023686FF0100273
:100488001A61082323772368DB6913F4407F31D08E
:100498002046FFF7A4FF0023237715F0010F02D0B1
:1004A80016F0010F2DD115F0800F02D016F0800F35
:1004B8002FD115F0400F02D016F0400F31D115F0B2
:1004C800200F02D016F0200F33D170BDFFF786FF42
:1004D8002046FFF785FF9CE72046FFF77FFF204671
:1004E800FFF77EFFABE72046FFF778FF2046FFF7D0
:1004F80077FFBAE72046FFF771FF2046FFF770FF46
:10050800C9E723686FF001021A612046FFF7C8FEA9
:10051800C9E723686FF080021A61204600F0A7F847
:10052800C7E723686FF040021A612046FFF759FFBA
:10053800C5E723686FF020021A61204600F096F89C
:10054800C3E700000368324A904212D0B0F1804FEE
:100558000FD0A2F57C4290420BD002F58062904207
:1005680007D002F58062904203D002F578429042AB
:1005780003D123F070034A681343254A90422AD0D6
:10058800B0F1804F27D0A2F57C42904223D002F5EB
:10059800806290421FD002F5806290421BD002F523
:1005A8007842904217D002F57052904213D002F56B
:1005B800806290420FD002F5806290420BD0A2F583
:1005C8009832904207D002F58062904203D002F53B
:1005D8008062904203D123F44073CA68134323F026
:1005E80080034A6913438A68C2620A688262084AB9
:1005F800904203D002F58062904201D10A690263F9
:10060800026842F0040202600122426103607047FE
:100618000000014040B310B5044690F83D30F3B1F6
:10062800022384F83D30214651F8040BFFF78AFF76
:10063800012384F8463084F83E3084F83F3084F84B
:10064800403084F8413084F8423084F8433084F8EC
:10065800443084F8453084F83D30002010BD80F8DF
:100668003C30FFF759FEDBE70120704770477047C1
:1006780000230F2B00F2E98070B582B065E0856831
:100688004FEA430E032404FA0EF425EA0405CC6865
:1006980004FA0EF42C438460446824EA02044A688D
:1006A800C2F300129A40224342605CE0DC0808343E
:1006B80050F8242003F00705AD004FF00F0E0EFA96
:1006C80005FE22EA0E0E0A69AA4042EA0E0240F826
:1006D80024205CE0072200E0002202FA0EF22A43FE
:1006E80002345A4D45F82420594A94686FEA0C029E
:1006F80024EA0C054E6816F4801F01D04CEA040564
:10070800534CA560E46802EA04054E6816F4001F1D
:1007180001D04CEA04054E4CE560646802EA040521
:100728004E6816F4003F01D04CEA0405484C656059
:10073800246822404D6815F4803F01D04CEA040239
:10074800434C226001330F2B7DD801229A400C685C
:1007580004EA020C32EA0404F4D14C6804F00304FD
:10076800013C012C8BD94A6802F00302032A09D004
:10077800C4685D000322AA4024EA02048A68AA40E9
:100788002243C2604A6802F00302022A8ED004683B
:100798004FEA430E032202FA0EF224EA02044A68E0
:1007A80002F0030202FA0EF2224302604A6812F4CF
:1007B800403FC7D000220192264A546C44F480443A
:1007C8005464526C02F480420192019A9C08A51C60
:1007D8001E4A52F8255003F0030E4FEA8E0E0F22E0
:1007E80002FA0EF225EA02051B4A90423FF474AF62
:1007F80002F5806290421AD002F58062904218D0C9
:1008080002F58062904216D002F58062904214D0C0
:1008180002F58062904212D002F58062904210D0B8
:1008280002F5806290423FF455AF082255E7012255
:1008380053E7022251E703224FE704224DE705223E
:100848004BE7062249E702B070BD70470038014007
:10085800003C01400038024000000240436901EAC0
:10086800030221EA030141EA024181617047000065
:10087800002807DB00F01F02400901239340024AC9
:1008880042F82030704700BF00E100E0002808DB94
:100898000901C9B200F1604000F5614080F8001319
:1008A800704700F00F000901C9B2014B1954704795
:1008B80014ED00E000B500F00700C0F1070CBCF132
:1008C800040F28BF4FF0040C031D062B0FD9C31EBD
:1008D8004FF0FF3E0EFA0CF021EA000199400EFAA3
:1008E80003FE22EA0E0241EA02005DF804FB00233F
:1008F800EEE70000074AD36823F4E0631B041B0CEF
:10090800000200F4E060034343F0BF6343F40033A4
:10091800D360704700ED00E010B50446054BD86879
:10092800C0F30220FFF7C6FF01462046FFF7AEFFDF
:1009380010BD00BF00ED00E008B5FFF799FF08BD46
:100948000138B0F1807F0BD24FF0E0235861054A9F
:10095800F02182F823100020986107221A6170475D
:100968000120704700ED00E0704708B5FFF7FCFF75
:1009780008BD000010B504460E4B1A784FF47A7380
:10098800B3FBF2F30C4A1068B0FBF3F0FFF7D8FFA3
:1009980068B90F2C01D901200AE0002221464FF046
:1009A800FF30FFF7B9FF054B1C60002000E0012075
:1009B80010BD00BF00000020080000200400002037
:1009C80008B50B4B1A6842F400721A601A6842F4B0
:1009D80080621A601A6842F480721A600320FFF776
:1009E80089FF0F20FFF7C6FFFFF778FC002008BD3E
:1009F800003C0240034A1168034B1B780B44136008
:100A0800704700BF7000002000000020034AD2F8A1
:100A1800883043F47003C2F88830704700ED00E076
:100A2800DFF834D0FFF7F2FF0C480D490D4A0023D8
:100A380002E0D458C4500433C4188C42F9D30A4A8B
:100A48000A4C002301E013600432A242FBD300F0F9
:100A580011F8FFF715FC7047000002200000002085
:100A68000C000020E40A00080C000020740000209C
:100A7800FEE7000070B50D4B0D4D5B1B9C1000266A
:100A8800A64209D100F01AF80A4D0B4B5B1B9C10CB
:100A98000026A64205D170BD55F8043B984701369B
:100AA800EEE755F8043B98470136F2E7DC0A000800
:100AB800DC0A0008DC0A0008E00A0008F8B500BFF4
:100AC800F8BC08BC9E467047F8B500BFF8BC08BC27
:040AD8009E4670477F
:040ADC00F10100081C
:040AE000C901000840
:0C0AE40001000000100000000024F400DD
:0400000508000A29BC
:00000001FF
